{
    "contractName": "Marketplace",
    "abi": [
        {
            "inputs": [
                {
                    "internalType": "address",
                    "name": "_acceptedToken",
                    "type": "address"
                },
                {
                    "internalType": "address",
                    "name": "_owner",
                    "type": "address"
                }
            ],
            "stateMutability": "nonpayable",
            "type": "constructor"
        },
        {
            "anonymous": false,
            "inputs": [
                {
                    "indexed": false,
                    "internalType": "address",
                    "name": "userAddress",
                    "type": "address"
                },
                {
                    "indexed": false,
                    "internalType": "address",
                    "name": "relayerAddress",
                    "type": "address"
                },
                {
                    "indexed": false,
                    "internalType": "bytes",
                    "name": "functionSignature",
                    "type": "bytes"
                }
            ],
            "name": "MetaTransactionExecuted",
            "type": "event"
        },
        {
            "anonymous": false,
            "inputs": [
                {
                    "indexed": false,
                    "internalType": "bytes32",
                    "name": "id",
                    "type": "bytes32"
                },
                {
                    "indexed": true,
                    "internalType": "uint256",
                    "name": "assetId",
                    "type": "uint256"
                },
                {
                    "indexed": true,
                    "internalType": "address",
                    "name": "seller",
                    "type": "address"
                },
                {
                    "indexed": false,
                    "internalType": "address",
                    "name": "nftAddress",
                    "type": "address"
                }
            ],
            "name": "OrderCancelled",
            "type": "event"
        },
        {
            "anonymous": false,
            "inputs": [
                {
                    "indexed": false,
                    "internalType": "bytes32",
                    "name": "id",
                    "type": "bytes32"
                },
                {
                    "indexed": true,
                    "internalType": "uint256",
                    "name": "assetId",
                    "type": "uint256"
                },
                {
                    "indexed": true,
                    "internalType": "address",
                    "name": "seller",
                    "type": "address"
                },
                {
                    "indexed": false,
                    "internalType": "address",
                    "name": "nftAddress",
                    "type": "address"
                },
                {
                    "indexed": false,
                    "internalType": "uint256",
                    "name": "priceInWei",
                    "type": "uint256"
                },
                {
                    "indexed": false,
                    "internalType": "uint256",
                    "name": "expiresAt",
                    "type": "uint256"
                }
            ],
            "name": "OrderCreated",
            "type": "event"
        },
        {
            "anonymous": false,
            "inputs": [
                {
                    "indexed": false,
                    "internalType": "bytes32",
                    "name": "id",
                    "type": "bytes32"
                },
                {
                    "indexed": true,
                    "internalType": "uint256",
                    "name": "assetId",
                    "type": "uint256"
                },
                {
                    "indexed": true,
                    "internalType": "address",
                    "name": "seller",
                    "type": "address"
                },
                {
                    "indexed": false,
                    "internalType": "address",
                    "name": "nftAddress",
                    "type": "address"
                },
                {
                    "indexed": false,
                    "internalType": "uint256",
                    "name": "totalPrice",
                    "type": "uint256"
                },
                {
                    "indexed": true,
                    "internalType": "address",
                    "name": "buyer",
                    "type": "address"
                }
            ],
            "name": "OrderSuccessful",
            "type": "event"
        },
        {
            "anonymous": false,
            "inputs": [
                {
                    "indexed": true,
                    "internalType": "address",
                    "name": "previousOwner",
                    "type": "address"
                },
                {
                    "indexed": true,
                    "internalType": "address",
                    "name": "newOwner",
                    "type": "address"
                }
            ],
            "name": "OwnershipTransferred",
            "type": "event"
        },
        {
            "anonymous": false,
            "inputs": [
                {
                    "indexed": false,
                    "internalType": "address",
                    "name": "account",
                    "type": "address"
                }
            ],
            "name": "Paused",
            "type": "event"
        },
        {
            "anonymous": false,
            "inputs": [
                {
                    "indexed": false,
                    "internalType": "address",
                    "name": "account",
                    "type": "address"
                }
            ],
            "name": "Unpaused",
            "type": "event"
        },
        {
            "inputs": [],
            "name": "ERC721_Interface",
            "outputs": [
                {
                    "internalType": "bytes4",
                    "name": "",
                    "type": "bytes4"
                }
            ],
            "stateMutability": "view",
            "type": "function"
        },
        {
            "inputs": [],
            "name": "InterfaceId_ValidateFingerprint",
            "outputs": [
                {
                    "internalType": "bytes4",
                    "name": "",
                    "type": "bytes4"
                }
            ],
            "stateMutability": "view",
            "type": "function"
        },
        {
            "inputs": [],
            "name": "acceptedToken",
            "outputs": [
                {
                    "internalType": "contract ERC20Interface",
                    "name": "",
                    "type": "address"
                }
            ],
            "stateMutability": "view",
            "type": "function"
        },
        {
            "inputs": [
                {
                    "internalType": "address",
                    "name": "nftAddress",
                    "type": "address"
                },
                {
                    "internalType": "uint256",
                    "name": "assetId",
                    "type": "uint256"
                }
            ],
            "name": "cancelOrder",
            "outputs": [],
            "stateMutability": "nonpayable",
            "type": "function"
        },
        {
            "inputs": [
                {
                    "internalType": "address",
                    "name": "nftAddress",
                    "type": "address"
                },
                {
                    "internalType": "uint256",
                    "name": "assetId",
                    "type": "uint256"
                },
                {
                    "internalType": "uint256",
                    "name": "priceInWei",
                    "type": "uint256"
                },
                {
                    "internalType": "uint256",
                    "name": "expiresAt",
                    "type": "uint256"
                }
            ],
            "name": "createOrder",
            "outputs": [],
            "stateMutability": "nonpayable",
            "type": "function"
        },
        {
            "inputs": [],
            "name": "domainSeparator",
            "outputs": [
                {
                    "internalType": "bytes32",
                    "name": "",
                    "type": "bytes32"
                }
            ],
            "stateMutability": "view",
            "type": "function"
        },
        {
            "inputs": [
                {
                    "internalType": "address",
                    "name": "userAddress",
                    "type": "address"
                },
                {
                    "internalType": "bytes",
                    "name": "functionSignature",
                    "type": "bytes"
                },
                {
                    "internalType": "bytes32",
                    "name": "sigR",
                    "type": "bytes32"
                },
                {
                    "internalType": "bytes32",
                    "name": "sigS",
                    "type": "bytes32"
                },
                {
                    "internalType": "uint8",
                    "name": "sigV",
                    "type": "uint8"
                }
            ],
            "name": "executeMetaTransaction",
            "outputs": [
                {
                    "internalType": "bytes",
                    "name": "",
                    "type": "bytes"
                }
            ],
            "stateMutability": "payable",
            "type": "function"
        },
        {
            "inputs": [
                {
                    "internalType": "address",
                    "name": "nftAddress",
                    "type": "address"
                },
                {
                    "internalType": "uint256",
                    "name": "assetId",
                    "type": "uint256"
                },
                {
                    "internalType": "uint256",
                    "name": "price",
                    "type": "uint256"
                }
            ],
            "name": "executeOrder",
            "outputs": [],
            "stateMutability": "nonpayable",
            "type": "function"
        },
        {
            "inputs": [],
            "name": "getChainId",
            "outputs": [
                {
                    "internalType": "uint256",
                    "name": "",
                    "type": "uint256"
                }
            ],
            "stateMutability": "pure",
            "type": "function"
        },
        {
            "inputs": [
                {
                    "internalType": "address",
                    "name": "user",
                    "type": "address"
                }
            ],
            "name": "getNonce",
            "outputs": [
                {
                    "internalType": "uint256",
                    "name": "nonce",
                    "type": "uint256"
                }
            ],
            "stateMutability": "view",
            "type": "function"
        },
        {
            "inputs": [
                {
                    "internalType": "address",
                    "name": "",
                    "type": "address"
                },
                {
                    "internalType": "uint256",
                    "name": "",
                    "type": "uint256"
                }
            ],
            "name": "orderByAssetId",
            "outputs": [
                {
                    "internalType": "bytes32",
                    "name": "id",
                    "type": "bytes32"
                },
                {
                    "internalType": "address",
                    "name": "seller",
                    "type": "address"
                },
                {
                    "internalType": "address",
                    "name": "nftAddress",
                    "type": "address"
                },
                {
                    "internalType": "uint256",
                    "name": "price",
                    "type": "uint256"
                },
                {
                    "internalType": "uint256",
                    "name": "expiresAt",
                    "type": "uint256"
                }
            ],
            "stateMutability": "view",
            "type": "function"
        },
        {
            "inputs": [],
            "name": "owner",
            "outputs": [
                {
                    "internalType": "address",
                    "name": "",
                    "type": "address"
                }
            ],
            "stateMutability": "view",
            "type": "function"
        },
        {
            "inputs": [],
            "name": "paused",
            "outputs": [
                {
                    "internalType": "bool",
                    "name": "",
                    "type": "bool"
                }
            ],
            "stateMutability": "view",
            "type": "function"
        },
        {
            "inputs": [],
            "name": "renounceOwnership",
            "outputs": [],
            "stateMutability": "nonpayable",
            "type": "function"
        },
        {
            "inputs": [
                {
                    "internalType": "address",
                    "name": "nftAddress",
                    "type": "address"
                },
                {
                    "internalType": "uint256",
                    "name": "assetId",
                    "type": "uint256"
                },
                {
                    "internalType": "uint256",
                    "name": "price",
                    "type": "uint256"
                },
                {
                    "internalType": "bytes",
                    "name": "fingerprint",
                    "type": "bytes"
                }
            ],
            "name": "safeExecuteOrder",
            "outputs": [],
            "stateMutability": "nonpayable",
            "type": "function"
        },
        {
            "inputs": [
                {
                    "internalType": "address",
                    "name": "newOwner",
                    "type": "address"
                }
            ],
            "name": "transferOwnership",
            "outputs": [],
            "stateMutability": "nonpayable",
            "type": "function"
        }
    ],
    "bytecode": "60806040523480156200001157600080fd5b506040516200243938038062002439833981810160405260408110156200003757600080fd5b50805160209091015160006200004c620001c3565b600080546001600160a01b0319166001600160a01b03831690811782556040519293509160008051602062002419833981519152908290a3506000805460ff60a01b19169055604080518082018252601581527f4d657461636c6f7564204d61726b6574706c6163650000000000000000000000602080830191909152825180840190935260018352603160f81b90830152620000e99162000223565b6001600160a01b03811662000135576040805162461bcd60e51b815260206004820152600d60248201526c24b73b30b634b21037bbb732b960991b604482015290519081900360640190fd5b6200014081620002bd565b6200015f826001600160a01b0316620003c760201b62000c771760201c565b6200019c5760405162461bcd60e51b81526004018080602001828103825260368152602001806200236e6036913960400191505060405180910390fd5b50600180546001600160a01b0319166001600160a01b0392909216919091179055620003e0565b6000333014156200021d5760606000368080601f0160208091040260200160405190810160405280939291908181526020018383808284376000920191909152505050503601516001600160a01b03169150620002209050565b50335b90565b6040518060800160405280604f8152602001620023ca604f913980519060200120828051906020012082805190602001203062000265620003cd60201b60201c565b60001b60405160200180868152602001858152602001848152602001836001600160a01b0316815260200182815260200195505050505050604051602081830303815290604052805190602001206003819055505050565b620002c7620001c3565b6001600160a01b0316620002da620003d1565b6001600160a01b03161462000336576040805162461bcd60e51b815260206004820181905260248201527f4f776e61626c653a2063616c6c6572206973206e6f7420746865206f776e6572604482015290519081900360640190fd5b6001600160a01b0381166200037d5760405162461bcd60e51b8152600401808060200182810382526026815260200180620023a46026913960400191505060405180910390fd5b600080546040516001600160a01b03808516939216916000805160206200241983398151915291a3600080546001600160a01b0319166001600160a01b0392909216919091179055565b3b151590565b4690565b6000546001600160a01b031690565b611f7e80620003f06000396000f3fe6080604052600436106100f35760003560e01c80636f652e1a1161008a578063ae7b033311610059578063ae7b0333146104a5578063e61f3851146104e4578063f2fde38b14610554578063f698da2514610587576100f3565b80636f652e1a14610367578063715018a6146103ac5780638da5cb5b146103c15780639b214f77146103d6576100f3565b806337f82f37116100c657806337f82f37146102bd578063451c3d80146102d25780635c975abb146103035780636a2061371461032c576100f3565b80630c53c51c146100f85780632b4c32be146102315780632d0335ab146102635780633408e470146102a8575b600080fd5b6101bc600480360360a081101561010e57600080fd5b6001600160a01b03823516919081019060408101602082013564010000000081111561013957600080fd5b82018360208201111561014b57600080fd5b8035906020019184600183028401116401000000008311171561016d57600080fd5b91908080601f016020809104026020016040519081016040528093929190818152602001838380828437600092019190915250929550508235935050506020810135906040013560ff1661059c565b6040805160208082528351818301528351919283929083019185019080838360005b838110156101f65781810151838201526020016101de565b50505050905090810190601f1680156102235780820380516001836020036101000a031916815260200191505b509250505060405180910390f35b34801561023d57600080fd5b5061024661085c565b604080516001600160e01b03199092168252519081900360200190f35b34801561026f57600080fd5b506102966004803603602081101561028657600080fd5b50356001600160a01b0316610867565b60408051918252519081900360200190f35b3480156102b457600080fd5b50610296610882565b3480156102c957600080fd5b50610246610887565b3480156102de57600080fd5b506102e76108ab565b604080516001600160a01b039092168252519081900360200190f35b34801561030f57600080fd5b506103186108ba565b604080519115158252519081900360200190f35b34801561033857600080fd5b506103656004803603604081101561034f57600080fd5b506001600160a01b0381351690602001356108ca565b005b34801561037357600080fd5b506103656004803603608081101561038a57600080fd5b506001600160a01b038135169060208101359060408101359060600135610926565b3480156103b857600080fd5b50610365610985565b3480156103cd57600080fd5b506102e7610a43565b3480156103e257600080fd5b50610365600480360360808110156103f957600080fd5b6001600160a01b03823516916020810135916040820135919081019060808101606082013564010000000081111561043057600080fd5b82018360208201111561044257600080fd5b8035906020019184600183028401116401000000008311171561046457600080fd5b91908080601f016020809104026020016040519081016040528093929190818152602001838380828437600092019190915250929550610a52945050505050565b3480156104b157600080fd5b50610365600480360360608110156104c857600080fd5b506001600160a01b038135169060208101359060400135610ab2565b3480156104f057600080fd5b5061051d6004803603604081101561050757600080fd5b506001600160a01b038135169060200135610b1a565b604080519586526001600160a01b039485166020870152929093168483015260608401526080830191909152519081900360a00190f35b34801561056057600080fd5b506103656004803603602081101561057757600080fd5b50356001600160a01b0316610b5d565b34801561059357600080fd5b50610296610c71565b60606105a6611cec565b50604080516060810182526001600160a01b038816600081815260046020908152908490205483528201529081018690526105e48782878787610c7d565b61061f5760405162461bcd60e51b815260040180806020018281038252603d815260200180611e4c603d913960400191505060405180910390fd5b6001600160a01b03871660008181526004602090815260408083208054600101905580519384523384830181905260609185018281528b51928601929092528a517f5845892132946850460bff5a0083f71031bc5bf9aadcd40f1de79423eac9b10b958d9592948d94919391926080850192918601918190849084905b838110156106b457818101518382015260200161069c565b50505050905090810190601f1680156106e15780820380516001836020036101000a031916815260200191505b5094505050505060405180910390a160006060306001600160a01b0316888a6040516020018083805190602001908083835b602083106107325780518252601f199092019160209182019101610713565b6001836020036101000a038019825116818451168082178552505050505050905001826001600160a01b031660601b8152601401925050506040516020818303038152906040526040518082805190602001908083835b602083106107a85780518252601f199092019160209182019101610789565b6001836020036101000a0380198251168184511680821785525050505050509050019150506000604051808303816000865af19150503d806000811461080a576040519150601f19603f3d011682016040523d82523d6000602084013e61080f565b606091505b5091509150816108505760405162461bcd60e51b8152600401808060200182810382526027815260200180611edd6027913960400191505060405180910390fd5b98975050505050505050565b6380ac58cd60e01b81565b6001600160a01b031660009081526004602052604090205490565b465b90565b7f8f9f4b63fb27ea36c52c6e650320201c8f2c6d7c1dfa95f40f5d5da52392016881565b6001546001600160a01b031681565b600054600160a01b900460ff1690565b6108d26108ba565b15610917576040805162461bcd60e51b815260206004820152601060248201526f14185d5cd8589b194e881c185d5cd95960821b604482015290519081900360640190fd5b6109218282610d6d565b505050565b61092e6108ba565b15610973576040805162461bcd60e51b815260206004820152601060248201526f14185d5cd8589b194e881c185d5cd95960821b604482015290519081900360640190fd5b61097f84848484610f63565b50505050565b61098d6113ea565b6001600160a01b031661099e610a43565b6001600160a01b0316146109f9576040805162461bcd60e51b815260206004820181905260248201527f4f776e61626c653a2063616c6c6572206973206e6f7420746865206f776e6572604482015290519081900360640190fd5b600080546040516001600160a01b03909116907f8be0079c531659141344cd1fd0a4f28419497f9722a3daafe3b4186f6b6457e0908390a3600080546001600160a01b0319169055565b6000546001600160a01b031690565b610a5a6108ba565b15610a9f576040805162461bcd60e51b815260206004820152601060248201526f14185d5cd8589b194e881c185d5cd95960821b604482015290519081900360640190fd5b610aab84848484611447565b5050505050565b610aba6108ba565b15610aff576040805162461bcd60e51b815260206004820152601060248201526f14185d5cd8589b194e881c185d5cd95960821b604482015290519081900360640190fd5b61097f83838360405180602001604052806000815250611447565b600260208181526000938452604080852090915291835291208054600182015492820154600383015460049093015491936001600160a01b039081169391169185565b610b656113ea565b6001600160a01b0316610b76610a43565b6001600160a01b031614610bd1576040805162461bcd60e51b815260206004820181905260248201527f4f776e61626c653a2063616c6c6572206973206e6f7420746865206f776e6572604482015290519081900360640190fd5b6001600160a01b038116610c165760405162461bcd60e51b8152600401808060200182810382526026815260200180611dbb6026913960400191505060405180910390fd5b600080546040516001600160a01b03808516939216917f8be0079c531659141344cd1fd0a4f28419497f9722a3daafe3b4186f6b6457e091a3600080546001600160a01b0319166001600160a01b0392909216919091179055565b60035481565b3b151590565b60006001600160a01b038616610cda576040805162461bcd60e51b815260206004820152601a60248201527f4e4d54237665726966793a20494e56414c49445f5349474e4552000000000000604482015290519081900360640190fd5b6001610ced610ce887611ac2565b611b45565b83868660405160008152602001604052604051808581526020018460ff1681526020018381526020018281526020019450505050506020604051602081039080840390855afa158015610d44573d6000803e3d6000fd5b505050602060405103516001600160a01b0316866001600160a01b031614905095945050505050565b610d75611d16565b6000610d7f6113ea565b9050610d89611d16565b506001600160a01b038085166000908152600260208181526040808420888552825292839020835160a081018552815480825260018301548716938201939093529281015490941692820192909252600383015460608201526004909201546080830152610e34576040805162461bcd60e51b8152602060048201526013602482015272105cdcd95d081b9bdd081c1d589b1a5cda1959606a1b604482015290519081900360640190fd5b816001600160a01b031681602001516001600160a01b03161480610e705750610e5b610a43565b6001600160a01b0316826001600160a01b0316145b610eb5576040805162461bcd60e51b81526020600482015260116024820152702ab730baba3437b934bd32b2103ab9b2b960791b604482015290519081900360640190fd5b80516020808301516040808501516001600160a01b03808b16600090815260028087528482208c835287528482208281556001810180546001600160a01b031990811690915591810180549092169091556003810182905560040155825186815281831695810195909552825193949193908516928a927f0325426328de5b91ae4ad8462ad4076de4bcaf4551e81556185cacde5a425c6b929081900390910190a350919695505050505050565b610f6c84611b83565b6000610f766113ea565b905060008590506000816001600160a01b0316636352211e876040518263ffffffff1660e01b81526004018082815260200191505060206040518083038186803b158015610fc357600080fd5b505afa158015610fd7573d6000803e3d6000fd5b505050506040513d6020811015610fed57600080fd5b505190506001600160a01b0383811690821614611051576040805162461bcd60e51b815260206004820181905260248201527f4f6e6c7920746865206f776e65722063616e20637265617465206f7264657273604482015290519081900360640190fd5b306001600160a01b0316826001600160a01b031663081812fc886040518263ffffffff1660e01b81526004018082815260200191505060206040518083038186803b15801561109f57600080fd5b505afa1580156110b3573d6000803e3d6000fd5b505050506040513d60208110156110c957600080fd5b50516001600160a01b0316148061115857506040805163e985e9c560e01b81526001600160a01b03838116600483015230602483015291519184169163e985e9c591604480820192602092909190829003018186803b15801561112b57600080fd5b505afa15801561113f573d6000803e3d6000fd5b505050506040513d602081101561115557600080fd5b50515b6111935760405162461bcd60e51b8152600401808060200182810382526032815260200180611e896032913960400191505060405180910390fd5b600085116111e8576040805162461bcd60e51b815260206004820152601d60248201527f50726963652073686f756c6420626520626967676572207468616e2030000000604482015290519081900360640190fd5b6111f342603c611c8b565b84116112305760405162461bcd60e51b8152600401808060200182810382526036815260200180611de16036913960400191505060405180910390fd5b60004282888a8960405160200180868152602001856001600160a01b031660601b8152601401848152602001836001600160a01b031660601b8152601401828152602001955050505050506040516020818303038152906040528051906020012090506040518060a00160405280828152602001836001600160a01b03168152602001896001600160a01b0316815260200187815260200186815250600260008a6001600160a01b03166001600160a01b0316815260200190815260200160002060008981526020019081526020016000206000820151816000015560208201518160010160006101000a8154816001600160a01b0302191690836001600160a01b0316021790555060408201518160020160006101000a8154816001600160a01b0302191690836001600160a01b031602179055506060820151816003015560808201518160040155905050816001600160a01b0316877f84c66c3f7ba4b390e20e8e8233e2a516f3ce34a72749e4f12bd010dfba238039838b8a8a60405180858152602001846001600160a01b0316815260200183815260200182815260200194505050505060405180910390a35050505050505050565b6000333014156114425760606000368080601f0160208091040260200160405190810160405280939291908181526020018383808284376000920191909152505050503601516001600160a01b031691506108849050565b503390565b61144f611d16565b61145885611b83565b60006114626113ea565b604080516301ffc9a760e01b8152638f9f4b6360e01b6004820152905191925087916001600160a01b038316916301ffc9a7916024808301926020929190829003018186803b1580156114b457600080fd5b505afa1580156114c8573d6000803e3d6000fd5b505050506040513d60208110156114de57600080fd5b5051156115fb5760408051638f9f4b6360e01b815260048101888152602482019283528651604483015286516001600160a01b03851693638f9f4b63938b938a9390929160640190602085019080838360005b83811015611549578181015183820152602001611531565b50505050905090810190601f1680156115765780820380516001836020036101000a031916815260200191505b50935050505060206040518083038186803b15801561159457600080fd5b505afa1580156115a8573d6000803e3d6000fd5b505050506040513d60208110156115be57600080fd5b50516115fb5760405162461bcd60e51b8152600401808060200182810382526022815260200180611ebb6022913960400191505060405180910390fd5b611603611d16565b506001600160a01b0380881660009081526002602081815260408084208b8552825292839020835160a0810185528154808252600183015487169382019390935292810154909416928201929092526003830154606082015260049092015460808301526116ae576040805162461bcd60e51b8152602060048201526013602482015272105cdcd95d081b9bdd081c1d589b1a5cda1959606a1b604482015290519081900360640190fd5b60208101516001600160a01b038116611700576040805162461bcd60e51b815260206004820152600f60248201526e496e76616c6964206164647265737360881b604482015290519081900360640190fd5b836001600160a01b0316816001600160a01b0316141561175b576040805162461bcd60e51b81526020600482015260116024820152702ab730baba3437b934bd32b2103ab9b2b960791b604482015290519081900360640190fd5b868260600151146117b3576040805162461bcd60e51b815260206004820152601860248201527f546865207072696365206973206e6f7420636f72726563740000000000000000604482015290519081900360640190fd5b816080015142106117ff576040805162461bcd60e51b8152602060048201526011602482015270151a19481bdc99195c88195e1c1a5c9959607a1b604482015290519081900360640190fd5b826001600160a01b0316636352211e896040518263ffffffff1660e01b81526004018082815260200191505060206040518083038186803b15801561184357600080fd5b505afa158015611857573d6000803e3d6000fd5b505050506040513d602081101561186d57600080fd5b50516001600160a01b038281169116146118b85760405162461bcd60e51b8152600401808060200182810382526021815260200180611f286021913960400191505060405180910390fd5b81516001600160a01b03808b1660009081526002602081815260408084208e85529091528220828155600180820180546001600160a01b031990811690915592820180549093169092556003810183905560040182905554909291166323b872dd87611922610a43565b856040518463ffffffff1660e01b815260040180846001600160a01b03168152602001836001600160a01b031681526020018281526020019350505050602060405180830381600087803b15801561197957600080fd5b505af115801561198d573d6000803e3d6000fd5b505050506040513d60208110156119a357600080fd5b50516119e05760405162461bcd60e51b8152600401808060200182810382526033815260200180611d456033913960400191505060405180910390fd5b846001600160a01b03166342842e0e84888d6040518463ffffffff1660e01b815260040180846001600160a01b03168152602001836001600160a01b031681526020018281526020019350505050600060405180830381600087803b158015611a4857600080fd5b505af1158015611a5c573d6000803e3d6000fd5b5050604080518481526001600160a01b038f811660208301528183018e90529151828b16945091871692508d917f695ec315e8a642a74d450a4505eeea53df699b47a7378c7d752e97d5b16eb9bb9181900360600190a450919998505050505050505050565b6000604051806080016040528060438152602001611d7860439139805190602001208260000151836020015184604001518051906020012060405160200180858152602001848152602001836001600160a01b03168152602001828152602001945050505050604051602081830303815290604052805190602001209050919050565b6003546040805161190160f01b6020808301919091526022820193909352604280820194909452815180820390940184526062019052815191012090565b611b95816001600160a01b0316610c77565b611bd05760405162461bcd60e51b8152600401808060200182810382526024815260200180611f046024913960400191505060405180910390fd5b604080516301ffc9a760e01b81526380ac58cd60e01b6004820152905182916001600160a01b038316916301ffc9a791602480820192602092909190829003018186803b158015611c2057600080fd5b505afa158015611c34573d6000803e3d6000fd5b505050506040513d6020811015611c4a57600080fd5b5051611c875760405162461bcd60e51b8152600401808060200182810382526035815260200180611e176035913960400191505060405180910390fd5b5050565b600082820183811015611ce5576040805162461bcd60e51b815260206004820152601b60248201527f536166654d6174683a206164646974696f6e206f766572666c6f770000000000604482015290519081900360640190fd5b9392505050565b60405180606001604052806000815260200160006001600160a01b03168152602001606081525090565b6040805160a0810182526000808252602082018190529181018290526060810182905260808101919091529056fe5472616e73666572696e67207468652063757420746f20746865204d61726b6574706c616365206f776e6572206661696c65644d6574615472616e73616374696f6e2875696e74323536206e6f6e63652c616464726573732066726f6d2c62797465732066756e6374696f6e5369676e6174757265294f776e61626c653a206e6577206f776e657220697320746865207a65726f20616464726573735075626c69636174696f6e2073686f756c64206265206d6f7265207468616e2031206d696e75746520696e2074686520667574757265546865204e465420636f6e74726163742068617320616e20696e76616c69642045524337323120696d706c656d656e746174696f6e4e4d5423657865637574654d6574615472616e73616374696f6e3a205349474e45525f414e445f5349474e41545552455f444f5f4e4f545f4d4154434854686520636f6e7472616374206973206e6f7420617574686f72697a656420746f206d616e616765207468652061737365745468652061737365742066696e6765727072696e74206973206e6f742076616c69644e4d5423657865637574654d6574615472616e73616374696f6e3a2043414c4c5f4641494c4544546865204e465420416464726573732073686f756c64206265206120636f6e74726163745468652073656c6c6572206973206e6f206c6f6e67657220746865206f776e6572a264697066735822122067d03a98e9cc0645d592da56488e8d6ecc3e02ca65096d3c78976e8b4204556e64736f6c6343000703003354686520616363657074656420746f6b656e2061646472657373206d7573742062652061206465706c6f79656420636f6e74726163744f776e61626c653a206e6577206f776e657220697320746865207a65726f2061646472657373454950373132446f6d61696e28737472696e67206e616d652c737472696e672076657273696f6e2c6164647265737320766572696679696e67436f6e74726163742c627974657333322073616c74298be0079c531659141344cd1fd0a4f28419497f9722a3daafe3b4186f6b6457e0",
    "sourcePath": "/Users/abrilzucchi/metacloud/marketplace-contract/contracts/Marketplace.sol",
    "compiler": {
        "name": "solc",
        "version": "0.7.3+commit.9bfce1f6"
    },
    "functionHashes": {
        "ERC721_Interface()": "2b4c32be",
        "InterfaceId_ValidateFingerprint()": "37f82f37",
        "acceptedToken()": "451c3d80",
        "cancelOrder(address,uint256)": "6a206137",
        "createOrder(address,uint256,uint256,uint256)": "6f652e1a",
        "domainSeparator()": "f698da25",
        "executeMetaTransaction(address,bytes,bytes32,bytes32,uint8)": "0c53c51c",
        "executeOrder(address,uint256,uint256)": "ae7b0333",
        "getChainId()": "3408e470",
        "getNonce(address)": "2d0335ab",
        "orderByAssetId(address,uint256)": "e61f3851",
        "owner()": "8da5cb5b",
        "paused()": "5c975abb",
        "renounceOwnership()": "715018a6",
        "safeExecuteOrder(address,uint256,uint256,bytes)": "9b214f77",
        "transferOwnership(address)": "f2fde38b"
    },
    "gasEstimates": {
        "creation": {
            "codeDepositCost": "1612400",
            "executionCost": "infinite",
            "totalCost": "infinite"
        },
        "external": {
            "ERC721_Interface()": "274",
            "InterfaceId_ValidateFingerprint()": "245",
            "acceptedToken()": "1082",
            "cancelOrder(address,uint256)": "infinite",
            "createOrder(address,uint256,uint256,uint256)": "infinite",
            "domainSeparator()": "1086",
            "executeMetaTransaction(address,bytes,bytes32,bytes32,uint8)": "infinite",
            "executeOrder(address,uint256,uint256)": "infinite",
            "getChainId()": "288",
            "getNonce(address)": "1210",
            "orderByAssetId(address,uint256)": "4644",
            "owner()": "1104",
            "paused()": "1094",
            "renounceOwnership()": "infinite",
            "safeExecuteOrder(address,uint256,uint256,bytes)": "infinite",
            "transferOwnership(address)": "infinite"
        },
        "internal": {
            "_cancelOrder(address,uint256)": "infinite",
            "_createOrder(address,uint256,uint256,uint256)": "infinite",
            "_executeOrder(address,uint256,uint256,bytes memory)": "infinite",
            "_requireERC721(address)": "infinite"
        }
    }
}