{
    "contractName": "MarketplaceStorage",
    "abi": [
        {
            "anonymous": false,
            "inputs": [
                {
                    "indexed": false,
                    "internalType": "bytes32",
                    "name": "id",
                    "type": "bytes32"
                },
                {
                    "indexed": true,
                    "internalType": "uint256",
                    "name": "assetId",
                    "type": "uint256"
                },
                {
                    "indexed": true,
                    "internalType": "address",
                    "name": "seller",
                    "type": "address"
                },
                {
                    "indexed": false,
                    "internalType": "address",
                    "name": "nftAddress",
                    "type": "address"
                }
            ],
            "name": "OrderCancelled",
            "type": "event"
        },
        {
            "anonymous": false,
            "inputs": [
                {
                    "indexed": false,
                    "internalType": "bytes32",
                    "name": "id",
                    "type": "bytes32"
                },
                {
                    "indexed": true,
                    "internalType": "uint256",
                    "name": "assetId",
                    "type": "uint256"
                },
                {
                    "indexed": true,
                    "internalType": "address",
                    "name": "seller",
                    "type": "address"
                },
                {
                    "indexed": false,
                    "internalType": "address",
                    "name": "nftAddress",
                    "type": "address"
                },
                {
                    "indexed": false,
                    "internalType": "uint256",
                    "name": "priceInWei",
                    "type": "uint256"
                },
                {
                    "indexed": false,
                    "internalType": "uint256",
                    "name": "expiresAt",
                    "type": "uint256"
                }
            ],
            "name": "OrderCreated",
            "type": "event"
        },
        {
            "anonymous": false,
            "inputs": [
                {
                    "indexed": false,
                    "internalType": "bytes32",
                    "name": "id",
                    "type": "bytes32"
                },
                {
                    "indexed": true,
                    "internalType": "uint256",
                    "name": "assetId",
                    "type": "uint256"
                },
                {
                    "indexed": true,
                    "internalType": "address",
                    "name": "seller",
                    "type": "address"
                },
                {
                    "indexed": false,
                    "internalType": "address",
                    "name": "nftAddress",
                    "type": "address"
                },
                {
                    "indexed": false,
                    "internalType": "uint256",
                    "name": "totalPrice",
                    "type": "uint256"
                },
                {
                    "indexed": true,
                    "internalType": "address",
                    "name": "buyer",
                    "type": "address"
                }
            ],
            "name": "OrderSuccessful",
            "type": "event"
        },
        {
            "inputs": [],
            "name": "ERC721_Interface",
            "outputs": [
                {
                    "internalType": "bytes4",
                    "name": "",
                    "type": "bytes4"
                }
            ],
            "stateMutability": "view",
            "type": "function"
        },
        {
            "inputs": [],
            "name": "InterfaceId_ValidateFingerprint",
            "outputs": [
                {
                    "internalType": "bytes4",
                    "name": "",
                    "type": "bytes4"
                }
            ],
            "stateMutability": "view",
            "type": "function"
        },
        {
            "inputs": [],
            "name": "acceptedToken",
            "outputs": [
                {
                    "internalType": "contract ERC20Interface",
                    "name": "",
                    "type": "address"
                }
            ],
            "stateMutability": "view",
            "type": "function"
        },
        {
            "inputs": [
                {
                    "internalType": "address",
                    "name": "",
                    "type": "address"
                },
                {
                    "internalType": "uint256",
                    "name": "",
                    "type": "uint256"
                }
            ],
            "name": "orderByAssetId",
            "outputs": [
                {
                    "internalType": "bytes32",
                    "name": "id",
                    "type": "bytes32"
                },
                {
                    "internalType": "address",
                    "name": "seller",
                    "type": "address"
                },
                {
                    "internalType": "address",
                    "name": "nftAddress",
                    "type": "address"
                },
                {
                    "internalType": "uint256",
                    "name": "price",
                    "type": "uint256"
                },
                {
                    "internalType": "uint256",
                    "name": "expiresAt",
                    "type": "uint256"
                }
            ],
            "stateMutability": "view",
            "type": "function"
        }
    ],
    "bytecode": "608060405234801561001057600080fd5b506101bc806100206000396000f3fe608060405234801561001057600080fd5b506004361061004c5760003560e01c80632b4c32be1461005157806337f82f3714610076578063451c3d801461007e578063e61f3851146100a2575b600080fd5b610059610105565b604080516001600160e01b03199092168252519081900360200190f35b610059610110565b610086610134565b604080516001600160a01b039092168252519081900360200190f35b6100ce600480360360408110156100b857600080fd5b506001600160a01b038135169060200135610143565b604080519586526001600160a01b039485166020870152929093168483015260608401526080830191909152519081900360a00190f35b6380ac58cd60e01b81565b7f8f9f4b63fb27ea36c52c6e650320201c8f2c6d7c1dfa95f40f5d5da52392016881565b6000546001600160a01b031681565b60016020818152600093845260408085209091529183529120805491810154600282015460038301546004909301546001600160a01b039283169391909216918556fea264697066735822122089fc2c9b5e3e77d1e3dfa509d055ccfccd0cd946fe96d8179087c0a19a782b8a64736f6c63430007030033",
    "sourcePath": "/Users/abrilzucchi/metacloud/marketplace-contract/contracts/MarketplaceStorage.sol",
    "compiler": {
        "name": "solc",
        "version": "0.7.3+commit.9bfce1f6"
    },
    "functionHashes": {
        "ERC721_Interface()": "2b4c32be",
        "InterfaceId_ValidateFingerprint()": "37f82f37",
        "acceptedToken()": "451c3d80",
        "orderByAssetId(address,uint256)": "e61f3851"
    },
    "gasEstimates": {
        "creation": {
            "codeDepositCost": "88800",
            "executionCost": "135",
            "totalCost": "88935"
        },
        "external": {
            "ERC721_Interface()": "206",
            "InterfaceId_ValidateFingerprint()": "222",
            "acceptedToken()": "1059",
            "orderByAssetId(address,uint256)": "4644"
        }
    }
}