{
    "contractName": "EIP712Base",
    "abi": [
        {
            "inputs": [],
            "name": "domainSeparator",
            "outputs": [
                {
                    "internalType": "bytes32",
                    "name": "",
                    "type": "bytes32"
                }
            ],
            "stateMutability": "view",
            "type": "function"
        },
        {
            "inputs": [],
            "name": "getChainId",
            "outputs": [
                {
                    "internalType": "uint256",
                    "name": "",
                    "type": "uint256"
                }
            ],
            "stateMutability": "pure",
            "type": "function"
        }
    ],
    "bytecode": "6080604052348015600f57600080fd5b5060958061001e6000396000f3fe6080604052348015600f57600080fd5b506004361060325760003560e01c80633408e470146037578063f698da2514604f575b600080fd5b603d6055565b60408051918252519081900360200190f35b603d6059565b4690565b6000548156fea26469706673582212204edb794ef905f1f8c9a1c613ebde8bd1d4add0c09e027aafd6435692c34dbe0864736f6c63430007030033",
    "sourcePath": "/Users/abrilzucchi/metacloud/marketplace-contract/contracts/commons/EIP712Base.sol",
    "compiler": {
        "name": "solc",
        "version": "0.7.3+commit.9bfce1f6"
    },
    "functionHashes": {
        "domainSeparator()": "f698da25",
        "getChainId()": "3408e470"
    },
    "gasEstimates": {
        "creation": {
            "codeDepositCost": "29800",
            "executionCost": "81",
            "totalCost": "29881"
        },
        "external": {
            "domainSeparator()": "998",
            "getChainId()": "175"
        },
        "internal": {
            "_initializeEIP712(string memory,string memory)": "infinite",
            "toTypedMessageHash(bytes32)": "infinite"
        }
    }
}