{
    "contractName": "NativeMetaTransaction",
    "abi": [
        {
            "anonymous": false,
            "inputs": [
                {
                    "indexed": false,
                    "internalType": "address",
                    "name": "userAddress",
                    "type": "address"
                },
                {
                    "indexed": false,
                    "internalType": "address",
                    "name": "relayerAddress",
                    "type": "address"
                },
                {
                    "indexed": false,
                    "internalType": "bytes",
                    "name": "functionSignature",
                    "type": "bytes"
                }
            ],
            "name": "MetaTransactionExecuted",
            "type": "event"
        },
        {
            "inputs": [],
            "name": "domainSeparator",
            "outputs": [
                {
                    "internalType": "bytes32",
                    "name": "",
                    "type": "bytes32"
                }
            ],
            "stateMutability": "view",
            "type": "function"
        },
        {
            "inputs": [
                {
                    "internalType": "address",
                    "name": "userAddress",
                    "type": "address"
                },
                {
                    "internalType": "bytes",
                    "name": "functionSignature",
                    "type": "bytes"
                },
                {
                    "internalType": "bytes32",
                    "name": "sigR",
                    "type": "bytes32"
                },
                {
                    "internalType": "bytes32",
                    "name": "sigS",
                    "type": "bytes32"
                },
                {
                    "internalType": "uint8",
                    "name": "sigV",
                    "type": "uint8"
                }
            ],
            "name": "executeMetaTransaction",
            "outputs": [
                {
                    "internalType": "bytes",
                    "name": "",
                    "type": "bytes"
                }
            ],
            "stateMutability": "payable",
            "type": "function"
        },
        {
            "inputs": [],
            "name": "getChainId",
            "outputs": [
                {
                    "internalType": "uint256",
                    "name": "",
                    "type": "uint256"
                }
            ],
            "stateMutability": "pure",
            "type": "function"
        },
        {
            "inputs": [
                {
                    "internalType": "address",
                    "name": "user",
                    "type": "address"
                }
            ],
            "name": "getNonce",
            "outputs": [
                {
                    "internalType": "uint256",
                    "name": "nonce",
                    "type": "uint256"
                }
            ],
            "stateMutability": "view",
            "type": "function"
        }
    ],
    "bytecode": "608060405234801561001057600080fd5b50610789806100206000396000f3fe60806040526004361061003f5760003560e01c80630c53c51c146100445780632d0335ab1461017d5780633408e470146101c2578063f698da25146101d7575b600080fd5b610108600480360360a081101561005a57600080fd5b6001600160a01b03823516919081019060408101602082013564010000000081111561008557600080fd5b82018360208201111561009757600080fd5b803590602001918460018302840111640100000000831117156100b957600080fd5b91908080601f016020809104026020016040519081016040528093929190818152602001838380828437600092019190915250929550508235935050506020810135906040013560ff166101ec565b6040805160208082528351818301528351919283929083019185019080838360005b8381101561014257818101518382015260200161012a565b50505050905090810190601f16801561016f5780820380516001836020036101000a031916815260200191505b509250505060405180910390f35b34801561018957600080fd5b506101b0600480360360208110156101a057600080fd5b50356001600160a01b03166104ac565b60408051918252519081900360200190f35b3480156101ce57600080fd5b506101b06104c7565b3480156101e357600080fd5b506101b06104cb565b60606101f6610682565b50604080516060810182526001600160a01b0388166000818152600160209081529084902054835282015290810186905261023487828787876104d1565b61026f5760405162461bcd60e51b815260040180806020018281038252603d8152602001806106f0603d913960400191505060405180910390fd5b6001600160a01b0387166000818152600160208181526040808420805490930190925581519384523384820181905260609285018381528b51938601939093528a517f5845892132946850460bff5a0083f71031bc5bf9aadcd40f1de79423eac9b10b958d9592948d949193909260808501928601918190849084905b838110156103045781810151838201526020016102ec565b50505050905090810190601f1680156103315780820380516001836020036101000a031916815260200191505b5094505050505060405180910390a160006060306001600160a01b0316888a6040516020018083805190602001908083835b602083106103825780518252601f199092019160209182019101610363565b6001836020036101000a038019825116818451168082178552505050505050905001826001600160a01b031660601b8152601401925050506040516020818303038152906040526040518082805190602001908083835b602083106103f85780518252601f1990920191602091820191016103d9565b6001836020036101000a0380198251168184511680821785525050505050509050019150506000604051808303816000865af19150503d806000811461045a576040519150601f19603f3d011682016040523d82523d6000602084013e61045f565b606091505b5091509150816104a05760405162461bcd60e51b815260040180806020018281038252602781526020018061072d6027913960400191505060405180910390fd5b98975050505050505050565b6001600160a01b031660009081526001602052604090205490565b4690565b60005481565b60006001600160a01b03861661052e576040805162461bcd60e51b815260206004820152601a60248201527f4e4d54237665726966793a20494e56414c49445f5349474e4552000000000000604482015290519081900360640190fd5b600161054161053c876105c1565b610644565b83868660405160008152602001604052604051808581526020018460ff1681526020018381526020018281526020019450505050506020604051602081039080840390855afa158015610598573d6000803e3d6000fd5b505050602060405103516001600160a01b0316866001600160a01b031614905095945050505050565b60006040518060800160405280604381526020016106ad60439139805190602001208260000151836020015184604001518051906020012060405160200180858152602001848152602001836001600160a01b03168152602001828152602001945050505050604051602081830303815290604052805190602001209050919050565b6000546040805161190160f01b6020808301919091526022820193909352604280820194909452815180820390940184526062019052815191012090565b60405180606001604052806000815260200160006001600160a01b0316815260200160608152509056fe4d6574615472616e73616374696f6e2875696e74323536206e6f6e63652c616464726573732066726f6d2c62797465732066756e6374696f6e5369676e6174757265294e4d5423657865637574654d6574615472616e73616374696f6e3a205349474e45525f414e445f5349474e41545552455f444f5f4e4f545f4d415443484e4d5423657865637574654d6574615472616e73616374696f6e3a2043414c4c5f4641494c4544a264697066735822122063e64b5b80b41313a592bc62c81f9e0f468cc69a35feaf6fdf7e0ce949217b9d64736f6c63430007030033",
    "sourcePath": "/Users/abrilzucchi/metacloud/marketplace-contract/contracts/commons/NativeMetaTransaction.sol",
    "compiler": {
        "name": "solc",
        "version": "0.7.3+commit.9bfce1f6"
    },
    "functionHashes": {
        "domainSeparator()": "f698da25",
        "executeMetaTransaction(address,bytes,bytes32,bytes32,uint8)": "0c53c51c",
        "getChainId()": "3408e470",
        "getNonce(address)": "2d0335ab"
    },
    "gasEstimates": {
        "creation": {
            "codeDepositCost": "385800",
            "executionCost": "424",
            "totalCost": "386224"
        },
        "external": {
            "domainSeparator()": "1042",
            "executeMetaTransaction(address,bytes,bytes32,bytes32,uint8)": "infinite",
            "getChainId()": "219",
            "getNonce(address)": "1142"
        },
        "internal": {
            "hashMetaTransaction(struct NativeMetaTransaction.MetaTransaction memory)": "infinite",
            "verify(address,struct NativeMetaTransaction.MetaTransaction memory,bytes32,bytes32,uint8)": "infinite"
        }
    }
}